:020000040800F2
:10000000C80600204D0200084D1E0008991D00087A
:10001000491E00084504000865250008000000008E
:10002000000000000000000000000000C11E0008E9
:100030004904000800000000BD1E0008191F000848
:1000400067020008670200086702000867020008EC
:1000500067020008670200086702000867020008DC
:1000600067020008670200086702000867020008CC
:1000700067020008670200086702000867020008BC
:1000800067020008670200086702000867020008AC
:10009000670200086702000867020008670200089C
:1000A000670200086702000867020008670200088C
:1000B000670200086702000867020008670200087C
:1000C000670200086702000867020008670200086C
:1000D000670200086702000867020008670200085C
:1000E000670200086702000867020008670200084C
:1000F000670200086702000867020008670200083C
:10010000670200086702000867020008670200082B
:10011000670200086702000867020008670200081B
:10012000670200086702000867020008670200080B
:1001300067020008670200086702000867020008FB
:1001400067020008670200086702000867020008EB
:1001500067020008670200086702000867020008DB
:1001600067020008670200086702000867020008CB
:10017000670200086702000867020008000000002C
:1001800067020008670200086702000801200008F3
:10019000670200086702000867020008670200089B
:1001A00000000000000000006702000800F002F8F4
:1001B00000F03CF80AA090E8000C82448344AAF1C5
:1001C0000107DA4501D100F031F8AFF2090EBAE8C3
:1001D0000F0013F0010F18BFFB1A43F0010318477B
:1001E000E024000000250000103A24BF78C878C140
:1001F000FAD8520724BF30C830C144BF04680C602D
:10020000704700000023002400250026103A28BF74
:1002100078C1FBD8520728BF30C148BF0B60704778
:100220001FB502F030FA1FBD10B510BD00F0D0F8B8
:100230001146FFF7F5FF02F011FA00F0EEF803B4F3
:10024000FFF7F2FF03BC00F0F5F800000948804713
:1002500009480047FEE7FEE7FEE7FEE7FEE7FEE7A8
:10026000FEE7FEE7FEE7FEE704480549054A064BC0
:1002700070470000ED1F0008AD010008C800002015
:10028000C8060020C8020020C802002053EA020C61
:1002900000F069802DE9F04B4FF00006002B1FBFE6
:1002A000B3FA83F503FA05F424FA05F65E4012BFAB
:1002B0001643B2FA82F502FA05F4C5F120051EBF15
:1002C00022FA05FC44EA0C04203556EA044C4FEAB5
:1002D000144418BF641C4FF000084FF0000990420E
:1002E00071EB030C39D3002919BFB1FA81F701FA78
:1002F00007F6B0FA80F700FA07F6C7F120071EBF2D
:1003000020FA07FC46EA0C062037B6FBF4FCA7EB04
:100310000507103F07F01F0BCBF120062CFA06F65D
:100320000CFA0BFB44BFB3460026202FA4BF5E4649
:100330004FF0000B5BEA060C08BF4FF0010B19EB06
:100340000B0948EB0608ABFB027C06FB02CC0BFB5F
:1003500003CCC01B71EB0C01C1E70B4602464146C2
:100360004846BDE8F08B13B5084318BF4FF0FF3087
:100370000146AFF30080BDE81C4070474FF000021B
:1003800000B5134694469646203922BFA0E80C508B
:10039000A0E80C50B1F12001BFF4F7AF090728BF66
:1003A000A0E80C5048BF0CC05DF804EB890028BFE2
:1003B00040F8042B08BF704748BF20F8022B11F00B
:1003C000804F18BF00F8012B704770477047704787
:1003D000754600F02BF8AE4605006946534620F0FE
:1003E0000700854618B020B5FFF73EFFBDE8204066
:1003F0004FF000064FF000074FF000084FF0000BE1
:10040000AC46ACE8C009ACE8C009ACE8C009ACE84F
:10041000C00921F007018D46704710B50446AFF3BF
:1004200000802046BDE81040FFF709BF0048704734
:100430001000002001491820ABBEFEE72600020094
:1004400070470000FFE7FEE77047000081B0EFF360
:10045000108072B60090FFE7FEE7000080B584B020
:1004600002900298806D019000F088FA0090029846
:1004700090F8350002280DD0FFE7029980204865EA
:10048000FFE70299002081F83400FFE701208DF892
:100490000F0055E002980168086820F01600086017
:1004A00002980168486920F0800048610298006C59
:1004B00020B9FFE70298806C38B1FFE70298016825
:1004C000086820F008000860FFE7029801680868E3
:1004D00020F001000860FFE7029800680068C0078C
:1004E000C8B1FFE700F04AFA0099401A062811D374
:1004F000FFE70299202048650299032081F8350022
:10050000FFE70299002081F83400FFE703208DF80F
:100510000F0015E0E0E70298C16D3F208840019987
:1005200088600299012081F83500FFE702990020D8
:1005300081F83400FFE7FFE700208DF80F00FFE7A8
:100540009DF80F0004B080BD82B00090009890F834
:100550003500022807D0FFE7009980204865012078
:100560008DF807000EE00099052081F8350000980D
:100570000168086820F001000860FFE700208DF89E
:100580000700FFE79DF8070002B0704790B00F909A
:100590000E9100200C900B900A900D90FFE70D98A3
:1005A0000F2800F2E881FFE70D99012088400C90A8
:1005B0000E9800680C9908400B900B980C99884293
:1005C00040F0D481FFE70E98406800F00300012856
:1005D00007D0FFE70E98406800F0030002282FD1F3
:1005E000FFE70F9880680A900D984100032000FAF9
:1005F00001F10A9888430A900E98C0680D99490045
:1006000000FA01F10A9808430A900A980F99886045
:100610000F9840680A900D99012000FA01F10A989C
:1006200088430A900E984068C0F300100D9900FAB4
:1006300001F10A9808430A900A980F994860FFE769
:100640000E98406800F00300032818D0FFE70F98C9
:10065000C0680A900D984100032000FA01F10A9841
:1006600088430A900E9880680D99490000FA01F1BC
:100670000A9808430A900A980F99C860FFE70E98F5
:10068000406800F00300022826D1FFE70F980D997B
:100690006FF0030202EA51010844006A0A900D98C3
:1006A00000F0070081000F2000FA01F10A9888434A
:1006B0000A900E9800690D9901F00701890000FA6F
:1006C00001F10A9808430A900A980F990D9B02EAD3
:1006D000530211440862FFE70F9800680A900D98D2
:1006E0004100032000FA01F10A9888430A900E980D
:1006F000406800F003000D99490000FA01F10A98E2
:1007000008430A900A980F9908600E98807980072C
:10071000002800F02A81FFE7FFE70020099043F658
:100720004400C4F20200016841F4804101600068A5
:1007300000F4804009900998FFE70D9820F003002D
:1007400043F60801C4F2010140580A900D9800F0E8
:10075000030081000F2000FA01F10A9888430A90F3
:100760000F980021C4F20201884203D1FFE7002064
:1007700008907AE00F9840F20041C4F202018842EA
:1007800003D1FFE7012007906CE00F9840F60001CD
:10079000C4F20201884203D1FFE7022006905EE026
:1007A0000F9840F60041C4F20201884203D1FFE7EE
:1007B0000320059050E00F9841F20001C4F20201BD
:1007C000884203D1FFE70420049042E00F9841F2F1
:1007D0000041C4F20201884203D1FFE705200390E3
:1007E00034E00F9841F60001C4F20201884203D1BF
:1007F000FFE70620029026E00F9841F60041C4F280
:100800000201884203D1FFE70720019018E00F980A
:1008100042F20001C4F20201884203D1FFE708203E
:1008200000900AE00F9942F20042C4F202020A204C
:10083000914208BF09200090FFE700980190FFE770
:1008400001980290FFE702980390FFE70398049055
:10085000FFE704980590FFE705980690FFE70698E4
:100860000790FFE707980890FFE70898C0B20D9936
:1008700001F00301890000FA01F10A9808430A9087
:100880000A980D9921F0030143F60802C4F201020F
:10089000885043F60840C4F2010000680A900B99A2
:1008A0000A9888430A900E988079C006002805D5DA
:1008B000FFE70B990A9808430A90FFE70A9843F666
:1008C0000841C4F20101086043F60C40C4F2010083
:1008D00000680A900B990A9888430A900E988079CC
:1008E0008006002805D5FFE70B990A9808430A906F
:1008F000FFE70A9843F60C41C4F20101086043F691
:100900000440C4F2010000680A900B990A988843D9
:100910000A900E9880798007002805D5FFE70B998B
:100920000A9808430A90FFE70A9843F60441C4F284
:100930000101086043F60040C4F2010000680A901B
:100940000B990A9888430A900E988079C00728B1BD
:10095000FFE70B990A9808430A90FFE70A9843F6C5
:100960000041C4F201010860FFE7FFE7FFE70D98CF
:1009700001300D9013E610B07047000040F2C40043
:10098000C2F200000068704740F20400C2F20000AA
:10099000027840F2C401C2F2000108681044086005
:1009A0007047000080B543F60041C4F202010868B8
:1009B00040F400700860086840F4806008600868CF
:1009C00040F480700860032000F08AF80F2000F0E7
:1009D00005F800F03BF8002080BD000080B582B033
:1009E000009040F20000C2F20000006840F20401F2
:1009F000C2F200010A784FF47A71B1FBF2F1B0FB58
:100A0000F1F000F005FE20B1FFE701208DF80700AE
:100A100018E000980F280DD8FFE700994FF0FF303D
:100A2000002200F043F8009840F20801C2F20001F1
:100A3000086003E001208DF8070003E000208DF836
:100A40000700FFE79DF8070002B080BD82B0FFE716
:100A50000020019043F64400C4F20200016841F412
:100A600080410160006800F4804001900198FFE738
:100A7000FFE70020009043F64000C4F20200016846
:100A800041F080510160006800F0805000900098B3
:100A9000FFE702B07047000080B582B08DF8070014
:100AA0009DF9070001F07AFD02B080BD80B586B0E7
:100AB0008DF81700049103920020029001F086FD4A
:100AC00002909DF91700019002980499039A01F091
:100AD000BFF90146019801F081FD06B080BD00001C
:100AE00080B582B00190019801F09AFD02B080BDFE
:100AF00080B584B000200290FFE70020019043F60B
:100B00004000C4F20200016841F0805101600068B9
:100B100000F0805001900198FFE74021C4F20E21BF
:100B200001200860FFF72AFF0290FFE747F2040068
:100B3000C4F20000006800F48030B0F5803F0DD0B2
:100B4000FFE7FFF71BFF0299401AB0F57A7F04D93F
:100B5000FFE703208DF80F0025E0E7E74421C4F20A
:100B60000E2101200860FFF709FF0290FFE747F21E
:100B70000400C4F20000006800F40030B0F5003F4B
:100B80000DD0FFE7FFF7FAFE0299401AB0F57A7F21
:100B900004D9FFE703208DF80F0004E0E7E7002009
:100BA0008DF80F00FFE79DF80F0004B080BD000036
:100BB00080B584B002900191029820B9FFE701202E
:100BC0008DF80F0021E1019843F60041C4F20201C3
:100BD000096801F00F01884212D9FFE7019943F635
:100BE0000040C4F202000170006800F00F0001999B
:100BF000884204D0FFE701208DF80F0005E1FFE7F0
:100C000002980078800700282AD5FFE7029800782C
:100C10004007002809D5FFE743F60801C4F20201A6
:100C2000086840F4E0500860FFE702980078000789
:100C3000002809D5FFE743F60801C4F2020108685D
:100C400040F460400860FFE743F60801C4F2020187
:100C5000086820F0F000029A926810430860FFE7ED
:100C600002980078C00700286ED0FFE7029840681D
:100C7000012811D1FFE743F60000C4F2020000682A
:100C800000F400310020B0EB514F04D1FFE7012008
:100C90008DF80F00B9E02CE002984068022805D0DA
:100CA000FFE702984068032811D1FFE743F60000F0
:100CB000C4F20200006800F000710020B0EB516F38
:100CC00004D1FFE701208DF80F009EE010E043F60D
:100CD0000000C4F20200006800F002010020B0EB46
:100CE000510F04D1FFE701208DF80F008DE0FFE7E1
:100CF000FFE743F60801C4F20201086820F0030090
:100D0000029A526810430860FFF738FE0090FFE730
:100D100043F60800C4F20200006800F00C000299DB
:100D20004968B0EB810F0ED0FFE7FFF727FE00996F
:100D3000401A41F28931884204D3FFE703208DF83D
:100D40000F0062E0E4E7FFE7019843F60041C4F2D8
:100D50000201096801F00F01884212D2FFE70199F0
:100D600043F60040C4F202000170006800F00F007A
:100D70000199884204D0FFE701208DF80F0044E07C
:100D8000FFE702980078400700280CD5FFE743F6FC
:100D90000801C4F20201086820F4E050029AD26807
:100DA00010430860FFE702980078000700280DD57F
:100DB000FFE743F60801C4F20201086820F460402E
:100DC000029A126940EAC2000860FFE700F04CF89E
:100DD00043F60801C4F202010968C9B20A0942F2E5
:100DE000A061C0F60001895CC84040F20001C2F277
:100DF0000001086040F20800C2F200000068FFF73E
:100E0000EDFD00208DF80F00FFE79DF80F0004B006
:100E100080BD000040F20000C2F200000068704790
:100E200080B5FFF7F7FF43F60801C4F20201096835
:100E3000C1F3822242F2B061C0F60001895CC84071
:100E400080BD000080B5FFF7E5FF43F60801C4F25E
:100E50000201096889B24A0B42F2B061C0F6000192
:100E6000895CC84080BD000080B586B00020059038
:100E700004900390029043F60800C4F20200006858
:100E800000F00C000146019140B1FFE701980428F1
:100E90000AD0FFE7019808280CD04FE042F200404A
:100EA000C0F2F40002904FE041F60030C0F2B7000B
:100EB000029049E043F60400C4F20200016801F028
:100EC0003F01059100684002002813D5FFE743F673
:100ED0000400C4F202000068C0F3881041F600313B
:100EE000C0F2B701A0FB0101059A0023FFF7CEF97C
:100EF000049012E043F60400C4F202000068C0F35C
:100F0000881042F20041C0F2F401A0FB0101059AF1
:100F10000023FFF7BBF90490FFE743F60400C4F297
:100F20000200006800F44031022000EBD130039051
:100F300004980399B0FBF1F0029005E042F2004002
:100F4000C0F2F4000290FFE7029806B080BD0000F6
:100F500080B586B00490049820B9FFE701208DF891
:100F6000170050E304980078C007002800F0A5801F
:100F7000FFE743F60800C4F20200006800F00C002E
:100F8000042813D0FFE743F60800C4F2020000680B
:100F900000F00C0008281ED1FFE743F60400C4F25D
:100FA000020000684002002815D5FFE743F6000064
:100FB000C4F20200006800F400310020B0EB514F91
:100FC00008D0FFE70498406820B9FFE701208DF8BA
:100FD000170018E370E0FFE704984068B0F5803F21
:100FE00009D1FFE743F60001C4F20201086840F4AA
:100FF0008030086020E004984068B0F5A02F0DD143
:10100000FFE743F60001C4F20201086840F48020C3
:101010000860086840F4803008600CE043F6000186
:10102000C4F20201086820F480300860086820F4E7
:1010300080200860FFE7FFE7FFE704984068E8B119
:10104000FFE7FFF79BFC0390FFE743F60000C4F2C5
:101050000200006800F400310020B0EB514F0CD1C9
:10106000FFE7FFF78BFC0399401A652804D3FFE7DD
:1010700003208DF81700C6E2E7E71CE0FFF77EFCCF
:101080000390FFE743F60000C4F20200006800F49A
:1010900000310020B0EB514F0CD0FFE7FFF76EFCA2
:1010A0000399401A652804D3FFE703208DF8170041
:1010B000A9E2E7E7FFE7FFE7FFE70498007880078A
:1010C000002840F19680FFE743F60800C4F20200D2
:1010D000006810F00C0F13D0FFE743F60800C4F2CD
:1010E0000200006800F00C0008282CD1FFE743F64E
:1010F0000400C4F2020000684002002823D4FFE785
:1011000043F60000C4F20200006800F00201002073
:10111000B0EB510F09D0FFE70498C068012804D054
:10112000FFE701208DF817006DE243F60001C4F2DD
:101130000201086820F0F800049A126940EAC2002F
:101140000860FFE754E00498C06870B3FFE700212F
:10115000C4F2472101200860FFF710FC0390FFE76D
:1011600043F60000C4F20200006800F00201002013
:10117000B0EB510F0CD1FFE7FFF700FC0399401AC9
:10118000032804D3FFE703208DF817003BE2E7E7CD
:1011900043F60001C4F20201086820F0F800049A46
:1011A000126940EAC200086021E00021C4F2472130
:1011B00000200860FFF7E2FB0390FFE743F6000022
:1011C000C4F20200006800F002010020B0EB510FF1
:1011D0000CD0FFE7FFF7D2FB0399401A032804D392
:1011E000FFE703208DF817000DE2E7E7FFE7FFE7D1
:1011F000FFE704980078000700284BD5FFE7049824
:10120000406918B3FFE740F68061C4F2472101202E
:101210000860FFF7B3FB0390FFE743F67400C4F2E6
:101220000200006800F002010020B0EB510F0CD169
:10123000FFE7FFF7A3FB0399401A032804D3FFE756
:1012400003208DF81700DEE1E7E722E040F6806139
:10125000C4F2472100200860FFF790FB0390FFE7EE
:1012600043F67400C4F20200006800F0020100209E
:10127000B0EB510F0CD0FFE7FFF780FB0399401A4A
:10128000032804D3FFE703208DF81700BBE1E7E74D
:10129000FFE7FFE7049800784007002840F1CE8080
:1012A000FFE700208DF8070043F64000C4F202007B
:1012B0000068C000002815D4FFE7FFE70020009079
:1012C00043F64000C4F20200016841F08051016021
:1012D000006800F0805000900098FFE701208DF832
:1012E0000700FFE747F20000C4F200000068C005F5
:1012F000002822D4FFE747F20001C4F20001086889
:1013000040F480700860FFF739FB0390FFE747F275
:101310000000C4F200000068C00500280CD4FFE7FC
:10132000FFF72CFB0399401A032804D3FFE703209F
:101330008DF8170067E1EAE7FFE7FFE704988068A8
:10134000012809D1FFE743F67001C4F202010868E1
:1013500040F0010008601FE00498806805280DD166
:10136000FFE743F67001C4F20201086840F0040090
:101370000860086840F0010008600CE043F6700166
:10138000C4F20201086820F001000860086820F03B
:1013900004000860FFE7FFE7FFE704988068F8B102
:1013A000FFE7FFF7EBFA0390FFE743F67000C4F2A4
:1013B0000200006800F002010020B0EB510F0ED1D6
:1013C000FFE7FFF7DBFA0399401A41F289318842BF
:1013D00004D3FFE703208DF8170014E1E5E71EE0D2
:1013E000FFF7CCFA0390FFE743F67000C4F2020067
:1013F000006800F002010020B0EB510F0ED0FFE7B3
:10140000FFF7BCFA0399401A41F28931884204D3AC
:10141000FFE703208DF81700F5E0E5E7FFE79DF80B
:101420000700012809D1FFE743F64001C4F2020199
:10143000086820F080500860FFE7FFE704988069A3
:10144000002800F0DC80FFE743F60800C4F2020049
:10145000006800F00C00082800F08580FFE7049881
:10146000806902285CD1FFE76021C4F24721002097
:101470000860FFF783FA0390FFE743F60000C4F229
:101480000200006800F000710020B0EB516F0CD03A
:10149000FFE7FFF773FA0399401A032804D3FFE725
:1014A00003208DF81700AEE0E7E70499C869D1F88A
:1014B00020C04B6A8A6A40EA0C0040EA8310D203DB
:1014C0004FF6FF739A43A2F580321043C96A40EA8F
:1014D000016043F60401C4F2020108606021C4F215
:1014E000472101200860FFF749FA0390FFE743F620
:1014F0000000C4F20200006800F000710020B0EBB0
:10150000516F0CD1FFE7FFF739FA0399401A03280E
:1015100004D3FFE703208DF8170074E0E7E721E02C
:101520006021C4F2472100200860FFF727FA0390EA
:10153000FFE743F60000C4F20200006800F000710B
:101540000020B0EB516F0CD0FFE7FFF717FA0399BB
:10155000401A032804D3FFE703208DF8170052E058
:10156000E7E7FFE74AE004988069012804D1FFE734
:1015700001208DF8170046E043F60400C4F2020093
:101580000068029004988069012831D0FFE7029832
:1015900000F480000499C969884229D1FFE70298C4
:1015A00000F03F000499096A884221D1FFE70298C0
:1015B00047F6C07108400499496AB0EB811F17D102
:1015C000FFE7029800F440300499896AC9034FF696
:1015D000FF729143A1F58031884209D1FFE702985B
:1015E00000F070600499C96AB0EB016F04D0FFE7A6
:1015F00001208DF8170006E0FFE7FFE7FFE7002076
:101600008DF81700FFE79DF8170006B080BD0000B9
:1016100080B582B00190019800F054FC02B080BD0A
:1016200082B00190ADF8021002B0704781B0009016
:1016300001B0704780B592B01190119800680068B1
:10164000109011980068C0680F9011980068406968
:101650000E9000200D900C90109800F00F000D904F
:101660000D9888B9FFE79DF84000800600280AD54C
:10167000FFE79DF83C008006002804D5FFE711989D
:1016800000F034FDE3E1FFE70D98002800F0C28090
:10169000FFE79DF83800C00738B9FFE7BDF83C0008
:1016A00010F4907F00F0B680FFE79DF84000C0077F
:1016B00058B1FFE79DF83D00C00730B1FFE7119931
:1016C000086C40F001000864FFE79DF84000400707
:1016D00000280BD5FFE79DF83800C00730B1FFE7C1
:1016E0001199086C40F002000864FFE79DF8400083
:1016F000800700280BD5FFE79DF83800C00730B100
:10170000FFE71199086C40F004000864FFE79DF8BA
:1017100040000007002811D5FFE79DF83C00800637
:10172000002805D4FFE79DF83800C00730B1FFE777
:101730001199086C40F008000864FFE71198006CEC
:10174000002866D0FFE79DF84000800600280AD5F3
:10175000FFE79DF83C008006002804D5FFE71198BC
:1017600000F0C4FCFFE7119800684069C0F38010E6
:101770000C901198006C0007002804D4FFE70C9827
:1017800000283ED0FFE7119800F052FC1198006845
:101790004069400600282FD5FFE7FFE7FFE71198D3
:1017A000006850E8050F20F040000B90FFE70B9910
:1017B0001198026842E805100028F0D1FFE7FFE722
:1017C0001198806B98B1FFE71198816B42F211007C
:1017D000C0F6000008651198806BFEF7B5FE28B1D1
:1017E000FFE71198806B016D8847FFE703E01198D0
:1017F000FFF71CFFFFE703E01198FFF717FFFFE774
:1018000006E01198FFF712FF119900200864FFE726
:10181000FFE71CE11198006B012840F0F880FFE71A
:101820009DF84000C006002840F1F180FFE79DF8D8
:101830003C00C006002840F1EA80FFE7FFE70020F7
:101840000A901198006800680A9011980068406832
:101850000A900A98FFE7119800684069400600283E
:101860007ED5FFE71198806B00684068ADF82600D0
:10187000BDF82600002872D0FFE7BDF826001199B8
:10188000898D88426BDAFFE7BDF826001199C8857B
:101890001198806BC069B0F5807F58D0FFE7FFE7F3
:1018A000FFE71198006850E8030F20F4807008905B
:1018B000FFE708991198026842E803100028F0D168
:1018C000FFE7FFE7FFE7FFE71198006850E8050F23
:1018D00020F001000790FFE707991198026842E89D
:1018E00005100028F0D1FFE7FFE7FFE7FFE71198B9
:1018F000006850E8050F20F040000690FFE70699C9
:101900001198026842E805100028F0D1FFE7FFE7D0
:101910001199202081F83E00119900200863FFE70B
:10192000FFE71198006850E8030F20F010000590C1
:10193000FFE705991198026842E803100028F0D1EA
:10194000FFE7FFE71198806BFEF788FDFFE711982E
:10195000818DC28D891A89B2FFF762FEFFE776E0BA
:101960001199888DC98D401AADF812001198C08D5B
:1019700000284BD0FFE7BDF81200002846D0FFE753
:10198000FFE7FFE71198006850E8030F20F490701C
:101990000390FFE703991198026842E803100028BA
:1019A000F0D1FFE7FFE7FFE7FFE71198006850E895
:1019B000050F20F001000290FFE7029911980268DC
:1019C00042E805100028F0D1FFE7FFE71199202039
:1019D00081F83E00119900200863FFE7FFE71198A6
:1019E000006850E8030F20F010000190FFE7019914
:1019F0001198026842E803100028F0D1FFE7FFE7E2
:101A00001198BDF81210FFF70BFEFFE71FE09DF8DD
:101A10004000000600280AD5FFE79DF83C000006BC
:101A2000002804D5FFE7119800F0E8FC0FE09DF8CE
:101A30004000400600280AD5FFE79DF83C0040061C
:101A4000002804D5FFE7119800F03CFBFFE712B037
:101A500080BD000080B582B00090009820B9FFE7FB
:101A600001208DF807003EE00098806908B1FFE78B
:101A700000E0FFE7009890F83D0040B9FFE70099CB
:101A8000002081F83C00009800F032F8FFE7009950
:101A9000242081F83D0000980168C86820F40050B7
:101AA000C860009800F0D4FB00980168086920F431
:101AB0009040086100980168486920F02A00486158
:101AC00000980168C86840F40050C8600099002080
:101AD0000864009A202182F83D10009A82F83E1096
:101AE0008DF80700FFE79DF8070002B080BD0000F9
:101AF00080B58AB009900020089007900690059064
:101B000004900998006847F60041C4F20001884239
:101B10003DD1FFE7FFE70020039043F64000C4F209
:101B20000200016841F000410160006800F00040DF
:101B300003900398FFE7FFE70020029043F6300090
:101B4000C4F20200016841F010010160006800F079
:101B5000100002900298FFE70320049002210591F3
:101B600000210091069107900820089041F20000A2
:101B7000C4F2020004A9FEF709FD009A5320019067
:101B80001146FEF793FF0198FEF786FFFFE70AB0C4
:101B900080BD000080B584B002900191ADF80220B4
:101BA000029890F83E00202828D1FFE7019820B144
:101BB000FFE7BDF8020020B9FFE701208DF80F0014
:101BC00020E0FFE7029890F83C00012804D1FFE7ED
:101BD00002208DF80F0015E00299012081F83C00E9
:101BE000FFE7FFE702990020086302980199BDF81A
:101BF000022000F0CBFB8DF80F0003E002208DF8EF
:101C00000F00FFE79DF80F0004B080BD80B582B0E3
:101C1000019040F27000C2F20000009042F2BE61FA
:101C2000C0F600010122642300F00AF8009840F297
:101C3000B401C2F200011022FFF7ACFF02B080BD78
:101C400080B58AB008900791ADF81A20059300205E
:101C50000290089890F83D00202840F09080FFE71F
:101C6000079820B1FFE7BDF81A0020B9FFE701206F
:101C70008DF8270087E0FFE7089890F83C000128DE
:101C800004D1FFE702208DF827007CE008990120AD
:101C900081F83C00FFE7FFE70899002008640899F5
:101CA000212081F83D00FEF769FE0290BDF81A0080
:101CB00008998884BDF81A000899C8840898806833
:101CC000B0F5805F09D1FFE70898006928B9FFE700
:101CD000002004900798039004E0079804900020E7
:101CE0000390FFE7FFE70899002081F83C00FFE739
:101CF000FFE70898C08C58B3FFE70898029B059946
:101D00006A4611608021002200F0C2FB20B1FFE78B
:101D100003208DF8270036E0049858B9FFE70398B0
:101D200000886FF35F2008990968486003980230C3
:101D3000039008E0049800780899096848600498BE
:101D400001300490FFE70899C88C0138C884D0E7B7
:101D50000898029B05996A4611604021002200F014
:101D600097FB20B1FFE703208DF827000BE00899CF
:101D7000202081F83D0000208DF8270003E002209C
:101D80008DF82700FFE79DF827000AB080BD00000E
:101D900081B0009001B07047FFE7FEE783B0FFE736
:101DA0000020029043F63000C4F20200016841F0C6
:101DB00010010160006800F0100002900298FFE737
:101DC000FFE70020019043F63000C4F202000168F2
:101DD00041F001010160006800F0010001900198EC
:101DE000FFE7FFE70020009043F63000C4F2020056
:101DF000016841F080010160006800F080000090FF
:101E00000098FFE703B0704780B582B040F27000E1
:101E1000C2F20000019047F60041C4F200010160E7
:101E20004FF41651416000218160C16001610C22B4
:101E300042618161C161FFF70DFE18B1FFE7FEF756
:101E400005FBFFE702B080BDFFE7FEE7FFE7FEE727
:101E500088B0079006910592079800F0070004905B
:101E60000498C0F10700052803D3FFE70420019080
:101E700004E00498C0F107000190FFE70198039087
:101E800004980430062803D8FFE70020009003E000
:101E9000049803380090FFE7009802900698039991
:101EA000012202FA01F101390840029B984005998C
:101EB0009A40013A1140084308B07047704700004B
:101EC0007047000080B582B0009000980138B0F1F2
:101ED000807F03D3FFE70120019019E000980138CB
:101EE0004EF21401CEF2000108604FF0FF300F21D6
:101EF00000F074FB4EF21801CEF2000100200860E1
:101F00004EF21002CEF20002072111600190FFE7AD
:101F1000019802B080BD000080B5FEF735FD80BDA0
:101F200080B594B008A83021FEF728FA0020079069
:101F30000690059004900390FFE70020029043F67E
:101F40004000C4F20200016841F080510160006865
:101F500000F0805002900298FFE7FFE70020019018
:101F600047F20000C4F20000016841F44041016002
:101F7000006800F4404001900198FFE701200890BC
:101F80004FF48030099002200E904FF480010F91A1
:101F900006211091B421119112900420139008A8E9
:101FA000FEF7D6FF18B1FFE7FEF750FAFFE7FEF79E
:101FB0009FFD18B1FFE7FEF749FAFFE70F200390F6
:101FC00002200490002005904FF4A05006904FF49A
:101FD0008050079003A80521FEF7EAFD18B1FFE73E
:101FE000FEF734FAFFE714B080BD00004EF68851CA
:101FF000CEF20001086840F47000086070470000ED
:1020000080B540F27000C2F20000FFF713FB80BD04
:1020100080B582B001900198806B009000990020FB
:10202000C8850099C8840098FFF700FB02B080BD06
:1020300084B00390FFE7FFE70398006850E8030FC0
:1020400020F490700290FFE702990398026842E83A
:1020500003100028F0D1FFE7FFE7FFE7FFE7039851
:10206000006850E8050F20F001000190FFE701999A
:102070000398026842E805100028F0D1FFE7FFE767
:102080000398006B012814D1FFE7FFE7FFE70398EF
:10209000006850E8030F20F010000090FFE700995F
:1020A0000398026842E803100028F0D1FFE7FFE739
:1020B000FFE70399202081F83E0003990020086380
:1020C00004B0704780B582B0019001980168C8687B
:1020D00020F04000C8600199202081F83D0001985F
:1020E000FFF756FE002002B080BD000080B586B02C
:1020F0000490049890F83E00222840F0A180FFE769
:1021000004988068B0F5805F15D1FFE704980069F6
:1021100088B9FFE7002003900498806A0290049831
:10212000006840686FF35F20029908800499886A0C
:102130000230886225E00498806A039000200290B3
:1021400004988068B0F5805F08D0FFE70498806845
:1021500050B9FFE70498006930B9FFE704980068B8
:1021600040680399087007E004980068406800F030
:102170007F0003990870FFE70499886A013088623C
:10218000FFE70499C88D0138C8850004002853D1A1
:10219000FFE704980168C86820F02000C860049830
:1021A0000168C86820F48070C860049801684869B4
:1021B00020F0010048610499202081F83E00049835
:1021C000006B012830D1FFE7049900200863FFE786
:1021D000FFE70498006850E8030F20F0100001901A
:1021E000FFE701990498026842E803100028F0D143
:1021F000FFE7FFE7049800680068C00600280ED5D6
:10220000FFE7FFE700200090049800680068009056
:1022100004980068406800900098FFE7FFE7049882
:10222000818DFFF7FDF903E00498FFF7EFFCFFE76E
:1022300000208DF8170007E000208DF8170003E05C
:1022400002208DF81700FFE79DF8170006B080BD4B
:1022500080B586B0059005980068006920F440506C
:10226000059A1168D26810430861059988680B695E
:102270004A69C969184310430843049005980068E7
:10228000C06849F20C6188430499084305990968BC
:10229000C86005980068406920F44070059A11688C
:1022A0009269104348610598006841F20001C4F248
:1022B0000101884209D0FFE70598006841F200411A
:1022C000C4F20101884204D1FFE7FEF7BBFD039091
:1022D00003E0FEF7A5FD0390FFE70598C069B0F5A0
:1022E000004F29D1FFE703981921A0FB0101059AAE
:1022F0001368029353685A00DB0FFDF7C7FF02997A
:10230000864648F21F53C5F2EB13AEFB0320420989
:1023100010014FF0640C02FB1CEC322202EBCC02E9
:10232000A2FB0332F82303EA521300EB4300C2F38B
:1023300042121044886026E003981921A0FB010195
:10234000059A1368019353689A009B0FFDF79EFF4F
:102350000199844648F21F52C5F2EB12ACFB0230E1
:102360004309642003FB10CC322000EB0C10A0FBCF
:102370000202F02000EA521000EB0310C2F34312F5
:1023800010448860FFE706B080BD000083B0029073
:102390000191ADF80220019802998862BDF802000F
:1023A00002998885BDF802000299C885029900202B
:1023B00008640299222081F83E00FFE7029900207C
:1023C00081F83C00FFE70298006938B1FFE7029806
:1023D0000168C86840F48070C860FFE7029801682F
:1023E000486940F00100486102980168C86840F0FF
:1023F0002000C860002003B07047000083B0019047
:10240000019890F83D0021283AD1FFE701988068B3
:10241000B0F5805F13D1FFE70198006978B9FFE755
:102420000198006A0090009800886FF35F2001997E
:10243000096848600199086A0230086208E0019A58
:10244000106A411C11620078019909684860FFE731
:102450000199C88C0138C884000468B9FFE7019865
:102460000168C86820F08000C86001980168C868E9
:1024700040F04000C860FFE700208DF80B0003E04B
:1024800002208DF80B00FFE79DF80B0003B07047AA
:1024900080B588B0DDF828C0069005918DF813202E
:1024A0000393FFE706980068006805990840401A02
:1024B000B0FA80F040099DF81310884249D1FFE737
:1024C0000A980130002843D0FFE70A9840B1FFE79F
:1024D000FEF754FA0399401A0A99884237D9FFE760
:1024E000FFE7FFE70698006850E8030F20F4D0707C
:1024F0000290FFE702990698026842E8031000285C
:10250000F0D1FFE7FFE7FFE7FFE70698006850E834
:10251000050F20F001000190FFE70199069802687D
:1025200042E805100028F0D1FFE7FFE706992020D8
:1025300081F83D00069981F83E00FFE706990020EA
:1025400081F83C00FFE703208DF81F0005E0FFE75E
:10255000A8E700208DF81F00FFE79DF81F0008B0D6
:1025600080BD0000FFE7FEE780B582B040F270005A
:10257000C2F20000019040F2B401C2F20001102248
:10258000FFF708FB019842F2B861C0F6000105228E
:102590006423FFF755FB02B080BD000081B08DF8C9
:1025A00003009DF9030000280ED4FFE79DF90310F6
:1025B00001F01F02012090404A094EF20011CEF2B4
:1025C000000141F82200FFE701B070474EF60C50C1
:1025D000CEF200000068C0F30220704782B08DF890
:1025E000070000919DF9070000280AD4FFE7009832
:1025F00000019DF907104EF20042CEF2000288540D
:102600000BE0009800019DF8071001F00F014EF655
:102610001452CEF200028854FFE702B07047000067
:1026200083B00290029800F0070000904EF60C5123
:10263000CEF200010868019001984FF6FF021040A9
:1026400001900198009A40EA02200022C0F2FA525A
:10265000104301900198086003B0704780B582B0C4
:1026600000200190FEF79EF9FFF75AFCFFF796FB5A
:10267000FFF7CAFB00F002F8FFE7FEE780B5FFF7BF
:1026800073FFFFE7FEE7F1EE100A4FF6FF71C0F2AD
:10269000C03120EA010040F04070E1EE100A7047BE
:1026A0000000000000000000010203040607080902
:1026B0000000000001020304696E69740A006100F1
:1026C000E02600080000002010000000E8010008DB
:1026D000F026000810000020B806000004020008E0
:1026E0000024F400010000001000000000000000C1
:04000005080001AD41
:00000001FF
