:020000040800F2
:10000000600800204D020008412F0008412D000823
:100010003D2F000845040008813A00080000000058
:10002000000000000000000000000000B52F0008E4
:10003000F105000800000000B12F00080D30000895
:1000400067020008670200086702000867020008EC
:1000500067020008670200086702000867020008DC
:1000600067020008670200086702000867020008CC
:1000700067020008670200086702000867020008BC
:1000800067020008670200086702000867020008AC
:10009000670200086702000867020008670200089C
:1000A000670200086702000867020008670200088C
:1000B000670200086702000867020008670200087C
:1000C000670200086702000867020008670200086C
:1000D000670200086702000867020008670200085C
:1000E000670200086702000867020008670200084C
:1000F000670200086702000867020008670200083C
:10010000670200086702000867020008670200082B
:100110006702000867020008F5300008670200085F
:100120006702000849040008670200086702000827
:1001300067020008670200086702000867020008FB
:1001400067020008670200086702000867020008EB
:10015000670200086702000867020008713A000899
:1001600067020008670200086702000867020008CB
:10017000670200086702000867020008000000002C
:1001800067020008670200086702000867020008AB
:10019000670200086702000867020008670200089B
:1001A00000000000000000006702000800F002F8F4
:1001B00000F03CF80AA090E8000C82448344AAF1C5
:1001C0000107DA4501D100F031F8AFF2090EBAE8C3
:1001D0000F0013F0010F18BFFB1A43F0010318477B
:1001E000403A0000603A0000103A24BF78C878C155
:1001F000FAD8520724BF30C830C144BF04680C602D
:10020000704700000023002400250026103A28BF74
:1002100078C1FBD8520728BF30C148BF0B60704778
:100220001FB503F0DCFC1FBD10B510BD00F0D0F809
:100230001146FFF7F5FF03F0A5FC00F0EEF803B45C
:10024000FFF7F2FF03BC00F0F5F800000948804713
:1002500009480047FEE7FEE7FEE7FEE7FEE7FEE7A8
:10026000FEE7FEE7FEE7FEE704480549054A064BC0
:1002700070470000E1300008AD0100086002002076
:1002800060080020600400206004002053EA020C93
:1002900000F069802DE9F04B4FF00006002B1FBFE6
:1002A000B3FA83F503FA05F424FA05F65E4012BFAB
:1002B0001643B2FA82F502FA05F4C5F120051EBF15
:1002C00022FA05FC44EA0C04203556EA044C4FEAB5
:1002D000144418BF641C4FF000084FF0000990420E
:1002E00071EB030C39D3002919BFB1FA81F701FA78
:1002F00007F6B0FA80F700FA07F6C7F120071EBF2D
:1003000020FA07FC46EA0C062037B6FBF4FCA7EB04
:100310000507103F07F01F0BCBF120062CFA06F65D
:100320000CFA0BFB44BFB3460026202FA4BF5E4649
:100330004FF0000B5BEA060C08BF4FF0010B19EB06
:100340000B0948EB0608ABFB027C06FB02CC0BFB5F
:1003500003CCC01B71EB0C01C1E70B4602464146C2
:100360004846BDE8F08B13B5084318BF4FF0FF3087
:100370000146AFF30080BDE81C4070474FF000021B
:1003800000B5134694469646203922BFA0E80C508B
:10039000A0E80C50B1F12001BFF4F7AF090728BF66
:1003A000A0E80C5048BF0CC05DF804EB890028BFE2
:1003B00040F8042B08BF704748BF20F8022B11F00B
:1003C000804F18BF00F8012B704770477047704787
:1003D000754600F02BF8AE4605006946534620F0FE
:1003E0000700854618B020B5FFF73EFFBDE8204066
:1003F0004FF000064FF000074FF000084FF0000BE1
:10040000AC46ACE8C009ACE8C009ACE8C009ACE84F
:10041000C00921F007018D46704710B50446AFF3BF
:1004200000802046BDE81040FFF709BF0048704734
:100430001000002001491820ABBEFEE72600020094
:1004400070470000FFE7FEE780B540F27000C2F29F
:10045000000000F06FF980BD82B001900198007833
:1004600010384AF6AB21CAF6AA21A0FB01100009F8
:100470000090009943F61040C0F60000405C0199DE
:10048000C8650098042807D3FFE70199086804228B
:1004900062F30900886506E00199086840F2FF32BE
:1004A00090438865FFE70198806D02B070470000B7
:1004B00086B0059000208DF813000598806A03909F
:1004C0000598806910BBFFE70398029003281BD8AA
:1004D0000299DFE801F0020D0218059890F82F004C
:1004E000C00720B1FFE701208DF81300FFE70CE003
:1004F0000598C06AB0F1C07F04D1FFE701208DF8F4
:100500001300FFE701E000E0FFE745E005988069A0
:10051000B0F5005F25D1FFE70398019003281ED8AE
:100520000199DFE801F00206021101208DF81300A5
:1005300016E0059890F82F00C00720B1FFE70120D2
:100540008DF81300FFE70BE00598C06AB0F1C07F9B
:1005500004D1FFE701208DF81300FFE700E0FFE77B
:1005600019E003980090032804D3FFE700980328BC
:1005700004D00EE001208DF813000BE0059890F8F0
:100580002F00C00720B1FFE701208DF81300FFE71F
:1005900000E0FFE7FFE7FFE79DF8130006B07047B4
:1005A00084B0039002910192009303980168086857
:1005B00020F4802008600098039909684860039837
:1005C0008068402809D1FFE701980399096888608D
:1005D000029803990968C86008E0029803990968BD
:1005E0008860019803990968C860FFE704B0704704
:1005F0007047000081B0EFF3108072B60090FFE703
:10060000FEE7000080B584B002900298806D0190F2
:1006100000F04AFD0090029890F8350002280DD0B5
:10062000FFE7029980204865FFE70299002081F8E2
:100630003400FFE701208DF80F0055E002980168B3
:10064000086820F01600086002980168486920F0E8
:10065000800048610298006C20B9FFE70298806C26
:1006600038B1FFE702980168086820F008000860C8
:10067000FFE702980168086820F001000860FFE7C2
:10068000029800680068C007C8B1FFE700F00CFDE1
:100690000099401A062811D3FFE7029920204865E7
:1006A0000299032081F83500FFE70299002081F8C4
:1006B0003400FFE703208DF80F0015E0E0E7029813
:1006C000C16D3F208840019988600299012081F81E
:1006D0003500FFE70299002081F83400FFE7FFE7CB
:1006E00000208DF80F00FFE79DF80F0004B080BDDB
:1006F00082B00090009890F83500022807D0FFE7FC
:1007000000998020486501208DF807000EE00099CF
:10071000052081F8350000980168086820F0010084
:100720000860FFE700208DF80700FFE79DF807004D
:1007300002B0704780B586B005900020039040F26B
:100740000000C2F20000006848F2B511C1F64E3157
:10075000A0FB0110800A02900598806D019001981D
:100760000068049004980599C96DC84000070028E6
:100770001AD5FFE70598006800684007002812D5E1
:10078000FFE705980168086820F0040008600598F4
:10079000C16D08208840019988600599486D40F036
:1007A00001004865FFE7FFE704980599C96DC84057
:1007B000C007A0B1FFE7059800684069000600285F
:1007C0000CD5FFE70598C16D01208840019988602C
:1007D0000599486D40F002004865FFE7FFE704987F
:1007E0000599C96DC8404007002814D5FFE7059852
:1007F00000680068800700280CD5FFE70598C16DE8
:1008000004208840019988600599486D40F00400F3
:100810004865FFE7FFE704980599C96DC840C00621
:10082000002847D5FFE70598006800680007002802
:100830003FD5FFE70598C16D102088400199886079
:10084000059800680068400300281AD5FFE705985E
:10085000006800680003002809D4FFE70598006CD1
:1008600020B1FFE70598016C8847FFE708E005988D
:10087000806C20B1FFE70598816C8847FFE7FFE7B0
:1008800016E0059800680068C005002807D4FFE757
:1008900005980168086820F008000860FFE70598DF
:1008A000006C20B1FFE70598016C8847FFE7FFE780
:1008B000FFE7FFE704980599C96DC8408006002846
:1008C00040F18D80FFE7059800680068C0060028A9
:1008D00040F18480FFE70598C16D20208840019990
:1008E0008860059890F83500052834D1FFE7059811
:1008F0000168086820F016000860059801684869DA
:1009000020F0800048610598006C20B9FFE7059849
:10091000806C38B1FFE705980168086820F008008E
:100920000860FFE70598C16D3F2088400199886005
:100930000599012081F83500FFE70599002081F82D
:100940003400FFE70598006D20B1FFE70598016DC1
:100950008847FFE77BE005980068006840030028AF
:100960001AD5FFE70598006800680003002809D43D
:10097000FFE70598406C20B1FFE70598416C884778
:10098000FFE708E00598C06B20B1FFE70598C16B51
:100990008847FFE7FFE720E0059800680068C0058A
:1009A000002811D4FFE705980168086820F01000BE
:1009B00008600599012081F83500FFE705990020BE
:1009C00081F83400FFE7FFE70598C06B20B1FFE72F
:1009D0000598C16B8847FFE7FFE7FFE7FFE705984A
:1009E000406DA0B3FFE70598406DC00730B3FFE747
:1009F0000599052081F8350005980168086820F000
:100A000001000860FFE703980130039002998842D3
:100A100001D9FFE707E0FFE7059800680068C00715
:100A20000028F0D1FFE70599012081F83500FFE7A4
:100A30000599002081F83400FFE7FFE70598C06CB6
:100A400020B1FFE70598C16C8847FFE7FFE706B0D4
:100A500080BD000080B586B004900020039000F0B7
:100A600023FB0290049820B9FFE701208DF81700BE
:100A7000A3E00498406A08B1FFE7FFE70499022069
:100A800081F83500FFE70499002081F83400FFE782
:100A900004980168086820F001000860FFE70498E6
:100AA00000680068C00790B1FFE700F0FDFA029906
:100AB000401A06280AD3FFE70499202048650499C4
:100AC000032081F835008DF8170076E0E7E70498F9
:100AD000006800680390039848F23F01CFF21001CC
:100AE00008400390049900914868D1F808C0CB6889
:100AF0000A6940EA0C00184310434A6910438A69A6
:100B00001043CA691043096A0143039808430390DC
:100B10000498406A042808D1FFE70499C86A096B61
:100B20000143039808430390FFE703980499096879
:100B300008600498006840690390039820F007005B
:100B400003900498416A0398084303900498406A0C
:100B500004281AD1FFE70498816A03980843039098
:100B60000498C06A80B1FFE70498FFF7A1FC50B178
:100B7000FFE70499402048650499012081F8350079
:100B80008DF8170019E0FFE7FFE70398049909685B
:100B900048610498FFF760FC01900498C16D3F2004
:100BA000884001998860049900204865049A0121D1
:100BB00082F835108DF81700FFE79DF8170006B092
:100BC00080BD000080B588B0069005910492039323
:100BD00000208DF80B000698806D0190FFE70698C5
:100BE00090F83400012804D1FFE702208DF81F009F
:100BF00045E00699012081F83400FFE7FFE70698F9
:100C000090F8350001282BD1FFE70699022081F8E2
:100C1000350006990020486506980599049A039BBB
:100C2000FFF7BEFC0698C16D3F208840019988609F
:100C300006980168086840F0160008600698006C85
:100C400038B1FFE706980168086840F008000860BE
:100C5000FFE706980168086840F00100086009E0B5
:100C6000FFE70699002081F83400FFE702208DF8A5
:100C70000B00FFE79DF80B008DF81F00FFE79DF8C4
:100C80001F0008B080BD000090B00F900E910020B2
:100C90000C900B900A900D90FFE70D980F2800F232
:100CA000E881FFE70D99012088400C900E980068BC
:100CB0000C9908400B900B980C99884240F0D48115
:100CC000FFE70E98406800F00300012807D0FFE717
:100CD0000E98406800F0030002282FD1FFE70F981C
:100CE00080680A900D984100032000FA01F10A98EB
:100CF00088430A900E98C0680D99490000FA01F1E6
:100D00000A9808430A900A980F9988600F984068DB
:100D10000A900D99012000FA01F10A9888430A907F
:100D20000E984068C0F300100D9900FA01F10A987E
:100D300008430A900A980F994860FFE70E984068A8
:100D400000F00300032818D0FFE70F98C0680A904E
:100D50000D984100032000FA01F10A9888430A9097
:100D60000E9880680D99490000FA01F10A9808432D
:100D70000A900A980F99C860FFE70E98406800F043
:100D80000300022826D1FFE70F980D996FF00302A8
:100D900002EA51010844006A0A900D9800F0070029
:100DA00081000F2000FA01F10A9888430A900E98FA
:100DB00000690D9901F00701890000FA01F10A9814
:100DC00008430A900A980F990D9B02EA53021144B6
:100DD0000862FFE70F9800680A900D984100032011
:100DE00000FA01F10A9888430A900E98406800F0D2
:100DF00003000D99490000FA01F10A9808430A908E
:100E00000A980F9908600E9880798007002800F0F2
:100E10002A81FFE7FFE70020099043F64400C4F26F
:100E20000200016841F480410160006800F48040E4
:100E300009900998FFE70D9820F0030043F6080198
:100E4000C4F2010140580A900D9800F0030081009F
:100E50000F2000FA01F10A9888430A900F980021A8
:100E6000C4F20201884203D1FFE7002008907AE033
:100E70000F9840F20041C4F20201884203D1FFE71B
:100E8000012007906CE00F9840F60001C4F20201C7
:100E9000884203D1FFE7022006905EE00F9840F6FB
:100EA0000041C4F20201884203D1FFE7032005900C
:100EB00050E00F9841F20001C4F20201884203D1D0
:100EC000FFE70420049042E00F9841F20041C4F291
:100ED0000201884203D1FFE70520039034E00F9818
:100EE00041F60001C4F20201884203D1FFE7062067
:100EF000029026E00F9841F60041C4F202018842B8
:100F000003D1FFE70720019018E00F9842F200019B
:100F1000C4F20201884203D1FFE7082000900AE0F2
:100F20000F9942F20042C4F202020A20914208BF25
:100F300009200090FFE700980190FFE701980290D8
:100F4000FFE702980390FFE703980490FFE70498F7
:100F50000590FFE705980690FFE706980790FFE7E2
:100F600007980890FFE70898C0B20D9901F00301B7
:100F7000890000FA01F10A9808430A900A980D992D
:100F800021F0030143F60802C4F20102885043F63F
:100F90000840C4F2010000680A900B990A9888433F
:100FA0000A900E988079C006002805D5FFE70B99B6
:100FB0000A9808430A90FFE70A9843F60841C4F2EA
:100FC0000101086043F60C40C4F2010000680A9079
:100FD0000B990A9888430A900E9880798006002819
:100FE00005D5FFE70B990A9808430A90FFE70A988E
:100FF00043F60C41C4F20101086043F60440C4F218
:10100000010000680A900B990A9888430A900E988C
:1010100080798007002805D5FFE70B990A980843D7
:101020000A90FFE70A9843F60441C4F20101086000
:1010300043F60040C4F2010000680A900B990A9838
:1010400088430A900E988079C00728B1FFE70B9972
:101050000A9808430A90FFE70A9843F60041C4F251
:1010600001010860FFE7FFE7FFE70D9801300D90F1
:1010700013E610B07047000082B00190ADF8021086
:101080008DF801209DF8010028B1FFE7BDF80200AE
:101090000199886105E0BDF80200000401998861AA
:1010A000FFE702B07047000040F25C20C2F200008F
:1010B0000068704740F20400C2F20000027840F27B
:1010C0005C21C2F20001086810440860704700000B
:1010D00080B543F60041C4F20201086840F4007094
:1010E0000860086840F480600860086840F4807018
:1010F0000860032000F08AF80F2000F005F800F0E7
:101100003BF8002080BD000080B582B0009040F226
:101110000000C2F20000006840F20401C2F20001C7
:101120000A784FF47A71B1FBF2F1B0FBF1F000F004
:1011300005FE20B1FFE701208DF8070018E00098B8
:101140000F280DD8FFE700994FF0FF30002200F084
:1011500043F8009840F20801C2F20001086003E081
:1011600001208DF8070003E000208DF80700FFE75D
:101170009DF8070002B080BD82B0FFE7002001901B
:1011800043F64400C4F20200016841F4804101606A
:10119000006800F4804001900198FFE7FFE700201D
:1011A000009043F64000C4F20200016841F0805113
:1011B0000160006800F0805000900098FFE702B0E6
:1011C0007047000080B582B08DF807009DF90700D8
:1011D00002F078FC02B080BD80B586B08DF81700B3
:1011E000049103920020029002F084FC02909DF989
:1011F0001700019002980499039A01F0A3FE01469A
:10120000019802F07FFC06B080BD000080B582B07E
:101210000190019802F098FC02B080BD80B584B0C6
:1012200000200290FFE70020019043F64000C4F246
:101230000200016841F080510160006800F08050B8
:1012400001900198FFE74021C4F20E2101200860BF
:10125000FFF72AFF0290FFE747F20400C4F2000004
:10126000006800F48030B0F5803F0DD0FFE7FFF755
:101270001BFF0299401AB0F57A7F04D9FFE70320DB
:101280008DF80F0025E0E7E74421C4F20E2101208C
:101290000860FFF709FF0290FFE747F20400C4F27D
:1012A0000000006800F40030B0F5003F0DD0FFE70B
:1012B000FFF7FAFE0299401AB0F57A7F04D9FFE7EA
:1012C00003208DF80F0004E0E7E700208DF80F0001
:1012D000FFE79DF80F0004B080BD000080B584B02A
:1012E00002900191029820B9FFE701208DF80F00CC
:1012F00021E1019843F60041C4F20201096801F0BE
:101300000F01884212D9FFE7019943F60040C4F269
:1013100002000170006800F00F000199884204D0BB
:10132000FFE701208DF80F0005E1FFE70298007844
:10133000800700282AD5FFE7029800784007002898
:1013400009D5FFE743F60801C4F20201086840F43A
:10135000E0500860FFE7029800780007002809D5F0
:10136000FFE743F60801C4F20201086840F4604058
:101370000860FFE743F60801C4F20201086820F0A4
:10138000F000029A926810430860FFE70298007824
:10139000C00700286ED0FFE702984068012811D1ED
:1013A000FFE743F60000C4F20200006800F40031D9
:1013B0000020B0EB514F04D1FFE701208DF80F0062
:1013C000B9E02CE002984068022805D0FFE70298B7
:1013D0004068032811D1FFE743F60000C4F2020081
:1013E000006800F000710020B0EB516F04D1FFE7FE
:1013F00001208DF80F009EE010E043F60000C4F2DB
:101400000200006800F002010020B0EB510F04D18F
:10141000FFE701208DF80F008DE0FFE7FFE743F6BF
:101420000801C4F20201086820F00300029A526821
:1014300010430860FFF738FE0090FFE743F608000E
:10144000C4F20200006800F00C0002994968B0EB99
:10145000810F0ED0FFE7FFF727FE0099401A41F2F7
:101460008931884204D3FFE703208DF80F0062E042
:10147000E4E7FFE7019843F60041C4F2020109687E
:1014800001F00F01884212D2FFE7019943F60040B4
:10149000C4F202000170006800F00F000199884258
:1014A00004D0FFE701208DF80F0044E0FFE7029829
:1014B0000078400700280CD5FFE743F60801C4F286
:1014C0000201086820F4E050029AD26810430860D4
:1014D000FFE702980078000700280DD5FFE743F6E4
:1014E0000801C4F20201086820F46040029A1269FF
:1014F00040EAC2000860FFE700F04CF843F608013C
:10150000C4F202010968C9B20A0943F6F831C0F60B
:101510000001895CC84040F20001C2F2000108608D
:1015200040F20800C2F200000068FFF7EDFD002065
:101530008DF80F00FFE79DF80F0004B080BD00009C
:1015400040F20000C2F200000068704780B5FFF76B
:10155000F7FF43F60801C4F202010968C1F38222D1
:1015600043F60841C0F60001895CC84080BD000018
:1015700080B5FFF7E5FF43F60801C4F202010968F0
:1015800089B24A0B43F60841C0F60001895CC840A5
:1015900080BD000080B586B00020059004900390C7
:1015A000029043F60800C4F20200006800F00C004C
:1015B0000146019140B1FFE7019804280AD0FFE7F6
:1015C000019808280CD04FE042F20040C0F2F4002D
:1015D00002904FE041F60030C0F2B700029049E0BF
:1015E00043F60400C4F20200016801F03F010591D6
:1015F00000684002002813D5FFE743F60400C4F258
:1016000002000068C0F3881041F60031C0F2B70153
:10161000A0FB0101059A0023FEF738FE049012E0BA
:1016200043F60400C4F202000068C0F3881042F2DE
:101630000041C0F2F401A0FB0101059A0023FEF76E
:1016400025FE0490FFE743F60400C4F202000068A0
:1016500000F44031022000EBD1300390049803994C
:10166000B0FBF1F0029005E042F20040C0F2F4005D
:101670000290FFE7029806B080BD000080B586B0FA
:101680000490049820B9FFE701208DF8170050E37B
:1016900004980078C007002800F0A580FFE743F613
:1016A0000800C4F20200006800F00C00042813D007
:1016B000FFE743F60800C4F20200006800F00C00E7
:1016C00008281ED1FFE743F60400C4F202000068B8
:1016D0004002002815D5FFE743F60000C4F20200DF
:1016E000006800F400310020B0EB514F08D0FFE754
:1016F0000498406820B9FFE701208DF8170018E32F
:1017000070E0FFE704984068B0F5803F09D1FFE73B
:1017100043F60001C4F20201086840F4803008601A
:1017200020E004984068B0F5A02F0DD1FFE743F604
:101730000001C4F20201086840F4802008600868D3
:1017400040F4803008600CE043F60001C4F202016E
:10175000086820F480300860086820F48020086061
:10176000FFE7FFE7FFE704984068E8B1FFE7FFF70E
:101770009BFC0390FFE743F60000C4F20200006800
:1017800000F400310020B0EB514F0CD1FFE7FFF720
:101790008BFC0399401A652804D3FFE703208DF8DA
:1017A0001700C6E2E7E71CE0FFF77EFC0390FFE7C7
:1017B00043F60000C4F20200006800F4003100208B
:1017C000B0EB514F0CD0FFE7FFF76EFC0399401AC6
:1017D000652804D3FFE703208DF81700A9E2E7E7A7
:1017E000FFE7FFE7FFE7049800788007002840F153
:1017F0009680FFE743F60800C4F20200006810F08C
:101800000C0F13D0FFE743F60800C4F20200006893
:1018100000F00C0008282CD1FFE743F60400C4F2C6
:10182000020000684002002823D4FFE743F60000CE
:10183000C4F20200006800F002010020B0EB510F7A
:1018400009D0FFE70498C068012804D0FFE7012011
:101850008DF817006DE243F60001C4F2020108683A
:1018600020F0F800049A126940EAC2000860FFE71D
:1018700054E00498C06870B3FFE70021C4F2472128
:1018800001200860FFF710FC0390FFE743F600001B
:10189000C4F20200006800F002010020B0EB510F1A
:1018A0000CD1FFE7FFF700FC0399401A032804D38B
:1018B000FFE703208DF817003BE2E7E743F600015E
:1018C000C4F20201086820F0F800049A126940EAA4
:1018D000C200086021E00021C4F247210020086016
:1018E000FFF7E2FB0390FFE743F60000C4F20200BB
:1018F000006800F002010020B0EB510F0CD0FFE7B0
:10190000FFF7D2FB0399401A032804D3FFE7032013
:101910008DF817000DE2E7E7FFE7FFE7FFE7049820
:101920000078000700284BD5FFE70498406918B3FA
:10193000FFE740F68061C4F2472101200860FFF70D
:10194000B3FB0390FFE743F67400C4F202000068A3
:1019500000F002010020B0EB510F0CD1FFE7FFF7C0
:10196000A3FB0399401A032804D3FFE703208DF853
:101970001700DEE1E7E722E040F68061C4F247218C
:1019800000200860FFF790FB0390FFE743F6740028
:10199000C4F20200006800F002010020B0EB510F19
:1019A0000CD0FFE7FFF780FB0399401A032804D30C
:1019B000FFE703208DF81700BBE1E7E7FFE7FFE74C
:1019C000049800784007002840F1CE80FFE700200F
:1019D0008DF8070043F64000C4F202000068C00022
:1019E000002815D4FFE7FFE70020009043F64000F1
:1019F000C4F20200016841F080510160006800F00B
:101A0000805000900098FFE701208DF80700FFE765
:101A100047F20000C4F200000068C005002822D48C
:101A2000FFE747F20001C4F20001086840F480704B
:101A30000860FFF739FB0390FFE747F20000C4F2AC
:101A400000000068C00500280CD4FFE7FFF72CFB5E
:101A50000399401A032804D3FFE703208DF81700E9
:101A600067E1EAE7FFE7FFE704988068012809D10A
:101A7000FFE743F67001C4F20201086840F001007C
:101A800008601FE00498806805280DD1FFE743F641
:101A90007001C4F20201086840F0040008600868A0
:101AA00040F0010008600CE043F67001C4F202014E
:101AB000086820F001000860086820F00400086051
:101AC000FFE7FFE7FFE704988068F8B1FFE7FFF75B
:101AD000EBFA0390FFE743F67000C4F202000068DF
:101AE00000F002010020B0EB510F0ED1FFE7FFF72D
:101AF000DBFA0399401A41F28931884204D3FFE7A7
:101B000003208DF8170014E1E5E71EE0FFF7CCFA9B
:101B10000390FFE743F67000C4F20200006800F093
:101B200002010020B0EB510F0ED0FFE7FFF7BCFA27
:101B30000399401A41F28931884204D3FFE7032018
:101B40008DF81700F5E0E5E7FFE79DF807000128AD
:101B500009D1FFE743F64001C4F20201086820F012
:101B600080500860FFE7FFE704988069002800F0D4
:101B7000DC80FFE743F60800C4F20200006800F0D2
:101B80000C00082800F08580FFE70498806902288F
:101B90005CD1FFE76021C4F2472100200860FFF715
:101BA00083FA0390FFE743F60000C4F202000068E6
:101BB00000F000710020B0EB516F0CD0FFE7FFF791
:101BC00073FA0399401A032804D3FFE703208DF822
:101BD0001700AEE0E7E70499C869D1F820C04B6A66
:101BE0008A6A40EA0C0040EA8310D2034FF6FF7382
:101BF0009A43A2F580321043C96A40EA016043F675
:101C00000401C4F2020108606021C4F247210120EE
:101C10000860FFF749FA0390FFE743F60000C4F2BB
:101C20000200006800F000710020B0EB516F0CD191
:101C3000FFE7FFF739FA0399401A032804D3FFE7B7
:101C400003208DF8170074E0E7E721E06021C4F27B
:101C5000472100200860FFF727FA0390FFE743F6CB
:101C60000000C4F20200006800F000710020B0EB38
:101C7000516F0CD0FFE7FFF717FA0399401A0328BA
:101C800004D3FFE703208DF8170052E0E7E7FFE7F2
:101C90004AE004988069012804D1FFE701208DF80B
:101CA000170046E043F60400C4F202000068029008
:101CB00004988069012831D0FFE7029800F4800081
:101CC0000499C969884229D1FFE7029800F03F00D2
:101CD0000499096A884221D1FFE7029847F6C0714A
:101CE00008400499496AB0EB811F17D1FFE70298B9
:101CF00000F440300499896AC9034FF6FF7291439A
:101D0000A1F58031884209D1FFE7029800F07060A8
:101D10000499C96AB0EB016F04D0FFE701208DF888
:101D2000170006E0FFE7FFE7FFE700208DF8170048
:101D3000FFE79DF8170006B080BD000080B582B0B7
:101D40000190019801F038F902B080BD81B0009097
:101D500001B0704781B0009001B0704785B003902A
:101D60000291FFE7039890F83C00012804D1FFE7B7
:101D700002208DF813007EE00399012081F83C00D9
:101D8000FFE7FFE70399022081F83D000398006810
:101D9000406801900398006880680090019820F0E6
:101DA0007000019002980168019808430190019821
:101DB000039909684860039800680021C4F2010192
:101DC00088423CD0FFE703980068B0F1804F36D0DE
:101DD000FFE70398006840F20041C4F20001884226
:101DE0002DD0FFE70398006840F60001C4F200011F
:101DF000884224D0FFE70398006840F60041C4F20F
:101E0000000188421BD0FFE70398006840F20041C0
:101E1000C4F20101884212D0FFE70398006844F23F
:101E20000001C4F20101884209D0FFE7039800686D
:101E300041F60001C4F2000188420ED1FFE700988C
:101E400020F08000009002984168009808430090BC
:101E50000098039909688860FFE70399012081F8D9
:101E60003D00FFE70399002081F83C00FFE70020D8
:101E70008DF81300FFE79DF8130005B070470000D0
:101E800080B582B00090009820B9FFE701208DF85E
:101E900007003FE0009890F83D0040B9FFE7009947
:101EA000002081F83C00009800F038F8FFE7009926
:101EB000022081F83D00009951F8040B01F022F94D
:101EC0000099012081F84600FFE70099012081F880
:101ED0003E00009981F83F00009981F84000009988
:101EE00081F84100FFE7FFE70099012081F84200F7
:101EF000009981F84300009981F84400009981F825
:101F00004500FFE70099012081F83D0000208DF891
:101F10000700FFE79DF8070002B080BD80B584B0E0
:101F200003900398006841F20001C4F20001884266
:101F30001BD1FFE7FFE70020029043F64000C4F208
:101F40000200016841F010010160006800F010001B
:101F500002900298FFE73620019000221146FFF719
:101F60003BF90198FFF72EF9FFE704B080BD0000B0
:101F700083B00190019890F83D00012804D0FFE75C
:101F800001208DF80B006AE00199022081F83D00E4
:101F900001980168C86840F00100C86001980068B5
:101FA0000021C4F2010188423CD0FFE7019800689B
:101FB000B0F1804F36D0FFE70198006840F2004151
:101FC000C4F2000188422DD0FFE70198006840F676
:101FD0000001C4F20001884224D0FFE701980068A4
:101FE00040F60041C4F2000188421BD0FFE701988F
:101FF000006840F20041C4F20101884212D0FFE7BC
:102000000198006844F20001C4F20101884209D03D
:10201000FFE70198006841F60001C4F20001884220
:1020200012D1FFE701980068806800F00700009077
:102030000098062807D0FFE701980168086840F07B
:1020400001000860FFE706E001980168086840F0B9
:1020500001000860FFE700208DF80B00FFE79DF806
:102060000B0003B07047000081B00090FFE70098BC
:102070000068006A41F21111084210D1FFE7009890
:102080000068006A40F24441084207D1FFE7009827
:102090000168086820F001000860FFE7FFE7FFE73C
:1020A0000099012081F83D00002001B07047000038
:1020B00081B0009001B0704780B582B00190019866
:1020C0000068006900F002010020B0EB510F28D039
:1020D000FFE701980068C06800F002010020B0EB43
:1020E000510F1DD0FFE7019801686FF002000861F1
:1020F000019901200877019800688069800720B164
:10210000FFE70198FFF7D4FF06E0019800F012F90D
:10211000019800F013F9FFE7019900200877FFE725
:10212000FFE701980068006900F004010020B0EBAF
:10213000910F29D0FFE701980068C06800F0040102
:102140000020B0EB910F1ED0FFE7019801686FF0FF
:1021500004000861019902200877019800688069ED
:1021600010F4407F04D0FFE70198FFF7A1FF06E0DD
:10217000019800F0DFF8019800F0E0F8FFE701991E
:1021800000200877FFE7FFE701980068006900F08A
:1021900008010020B0EBD10F28D0FFE701980068BC
:1021A000C06800F008010020B0EBD10F1DD0FFE7A0
:1021B000019801686FF00800086101990420087710
:1021C00001980068C069800720B1FFE70198FFF718
:1021D0006FFF06E0019800F0ADF8019800F0AEF84E
:1021E000FFE7019900200877FFE7FFE70198006803
:1021F000006900F010010020B0EB111F29D0FFE7AB
:1022000001980068C06800F010010020B0EB111FB9
:102210001ED0FFE7019801686FF010000861019976
:102220000820087701980068C06910F4407F04D046
:10223000FFE70198FFF73CFF06E0019800F07AF80D
:10224000019800F07BF8FFE7019900200877FFE78D
:10225000FFE7019800680069C00780B1FFE70198B7
:102260000068C068C00748B1FFE7019801686FF0D7
:1022700001000861019800F065F8FFE7FFE70198A9
:1022800000680069C1B20020B0EBD11F13D0FFE796
:1022900001980068C068C1B20020B0EBD11F09D01E
:1022A000FFE7019801686FF0800008610198FFF76F
:1022B0004DFDFFE7FFE701980068006900F040016D
:1022C0000020B0EB911F14D0FFE701980068C068B0
:1022D00000F040010020B0EB911F09D0FFE701980A
:1022E00001686FF040000861019800F049F8FFE7CD
:1022F000FFE701980068006900F020010020B0EBC2
:10230000511F14D0FFE701980068C06800F0200159
:102310000020B0EB511F09D0FFE7019801686FF072
:10232000200008610198FFF715FDFFE7FFE702B005
:1023300080BD000081B0009001B0704781B0009076
:1023400001B0704780B582B00190019840F2D00191
:10235000C2F20001884210D1FFE740F2D000C2F281
:102360000000FFF781FE41F20040C4F202004FF48A
:1023700080410122FEF780FEFFE702B080BD000031
:1023800081B0009001B0704780B586B00490039191
:10239000ADF80A20049890F83E0020285BD1FFE7B2
:1023A000039820B1FFE7BDF80A0020B9FFE701203C
:1023B0008DF8170053E0FFE7049890F83C000128DF
:1023C00004D1FFE702208DF8170048E004990120AE
:1023D00081F83C00FFE7FFE70499012008630498B7
:1023E0000399BDF80A2001F003FA8DF809009DF861
:1023F000090058BBFFE70498006B012821D1FFE7D3
:10240000FFE700200190049800680068019004989C
:102410000068406801900198FFE7FFE7FFE7049834
:10242000006850E8030F40F010000090FFE70099AB
:102430000498026842E803100028F0D1FFE7FFE7A4
:1024400003E001208DF80900FFE7FFE79DF8090090
:102450008DF8170003E002208DF81700FFE79DF8C4
:10246000170006B080BD000080B586B00590ADF8BD
:10247000121040F21810C2F20000029040F25C11FB
:10248000C2F2000100914FF48072019200F002FC50
:102490000099019A0298FFF777FF41F20040C4F2D9
:1024A00002004FF4804100220392FEF7E5FD0399FC
:1024B00040F2D000C2F2000002685162FFF758FDFE
:1024C00006B080BD81B0009001B0704780B592B079
:1024D0001190119800680068109011980068C06809
:1024E0000F901198006840690E9000200D900C909C
:1024F000109800F00F000D900D9888B9FFE79DF837
:102500004000800600280AD5FFE79DF83C008006C1
:10251000002804D5FFE7119801F01AF8E3E1FFE77E
:102520000D98002800F0C280FFE79DF83800C00732
:1025300038B9FFE7BDF83C0010F4907F00F0B6809A
:10254000FFE79DF84000C00758B1FFE79DF83D0048
:10255000C00730B1FFE71199086C40F00100086432
:10256000FFE79DF84000400700280BD5FFE79DF8E6
:102570003800C00730B1FFE71199086C40F0020045
:102580000864FFE79DF84000800700280BD5FFE7AF
:102590009DF83800C00730B1FFE71199086C40F092
:1025A00004000864FFE79DF840000007002811D5EB
:1025B000FFE79DF83C008006002805D4FFE79DF862
:1025C0003800C00730B1FFE71199086C40F00800EF
:1025D0000864FFE71198006C002866D0FFE79DF8BB
:1025E0004000800600280AD5FFE79DF83C008006E1
:1025F000002804D5FFE7119800F0AAFFFFE7119823
:1026000000684069C0F380100C901198006C0007BE
:10261000002804D4FFE70C9800283ED0FFE711986B
:1026200000F01CFF119800684069400600282FD573
:10263000FFE7FFE7FFE71198006850E8050F20F07B
:1026400040000B90FFE70B991198026842E80510D3
:102650000028F0D1FFE7FFE71198806B98B1FFE702
:102660001198816B43F2A120C0F600000865119813
:10267000806BFEF73DF828B1FFE71198806B016D84
:102680008847FFE703E01198FFF71CFFFFE703E02F
:102690001198FFF717FFFFE706E01198FFF712FF09
:1026A000119900200864FFE7FFE71CE11198006B17
:1026B000012840F0F880FFE79DF84000C0060028A0
:1026C00040F1F180FFE79DF83C00C006002840F192
:1026D000EA80FFE7FFE700200A9011980068006891
:1026E0000A901198006840680A900A98FFE71198CC
:1026F00000684069400600287ED5FFE71198806B8E
:1027000000684068ADF82600BDF82600002872D0A9
:10271000FFE7BDF826001199898D88426BDAFFE743
:10272000BDF826001199C8851198806BC069B0F575
:10273000807F58D0FFE7FFE7FFE71198006850E877
:10274000030F20F480700890FFE708991198026841
:1027500042E803100028F0D1FFE7FFE7FFE7FFE7BB
:102760001198006850E8050F20F001000790FFE77E
:1027700007991198026842E805100028F0D1FFE798
:10278000FFE7FFE7FFE71198006850E8050F20F02A
:1027900040000690FFE706991198026842E805108C
:1027A0000028F0D1FFE7FFE71199202081F83E00D3
:1027B000119900200863FFE7FFE71198006850E8CF
:1027C000030F20F010000590FFE7059911980268AB
:1027D00042E803100028F0D1FFE7FFE71198806B73
:1027E000FDF710FFFFE71198818DC28D891A89B21C
:1027F000FFF73AFEFFE776E01199888DC98D401A00
:10280000ADF812001198C08D00284BD0FFE7BDF83D
:102810001200002846D0FFE7FFE7FFE711980068A5
:1028200050E8030F20F490700390FFE7039911988C
:10283000026842E803100028F0D1FFE7FFE7FFE756
:10284000FFE71198006850E8050F20F001000290A2
:10285000FFE702991198026842E805100028F0D1BC
:10286000FFE7FFE71199202081F83E001199002031
:102870000863FFE7FFE71198006850E8030F20F0B6
:1028800010000190FFE701991198026842E80310D7
:102890000028F0D1FFE7FFE71198BDF81210FFF70D
:1028A000E3FDFFE71FE09DF84000000600280AD581
:1028B000FFE79DF83C000006002804D5FFE71198CB
:1028C00001F022F80FE09DF84000400600280AD5EC
:1028D000FFE79DF83C004006002804D5FFE711986B
:1028E00000F006FEFFE712B080BD000080B582B0A8
:1028F0000090009820B9FFE701208DF807003EE026
:102900000098806908B1FFE700E0FFE7009890F8C1
:102910003D0040B9FFE70099002081F83C00009895
:1029200000F032F8FFE70099242081F83D0000987C
:102930000168C86820F40050C860009800F0BAFE32
:1029400000980168086920F49040086100980168C7
:10295000486920F02A00486100980168C86840F47E
:102960000050C860009900200864009A202182F875
:102970003D10009A82F83E108DF80700FFE79DF8A1
:10298000070002B080BD000080B58CB00B90002025
:102990000A9009900890079006900B98006841F201
:1029A0000041C4F20101884268D1FFE7FFE700203F
:1029B000059043F64400C4F20200016841F0200192
:1029C0000160006800F0200005900598FFE7FFE730
:1029D0000020049043F63000C4F20200016841F088
:1029E00040010160006800F0400004900498FFE797
:1029F0004FF4844006900220079000200290089037
:102A00000320099008200A9041F60000C4F2020059
:102A100006A9FEF739F9029940F27000C2F20000EF
:102A2000039046F22842C4F2020202604FF0206294
:102A300042608160C1604FF48062026141618161E6
:102A4000C16101624162FEF705F818B1FFE7FDF7C9
:102A5000D1FDFFE7FFE70B9840F27001C2F20001E1
:102A600081630B988863FFE747200190002211469D
:102A7000FEF7B2FB0198FEF7A5FBFFE70CB080BDA7
:102A800080B584B002900191ADF80220029890F8D0
:102A90003E00202828D1FFE7019820B1FFE7BDF8CC
:102AA000020020B9FFE701208DF80F0020E0FFE7CA
:102AB000029890F83C00012804D1FFE702208DF82D
:102AC0000F0015E00299012081F83C00FFE7FFE7C5
:102AD00002990020086302980199BDF8022000F0D5
:102AE00087FE8DF80F0003E002208DF80F00FFE74E
:102AF0009DF80F0004B080BD80B584B003900398AA
:102B000040F21811C2F20001884215D1FFE740F2ED
:102B10001810C2F20000029040F25C11C2F20001F3
:102B200000914FF48072019200F0B4F80099019A7C
:102B30000298FFF7A5FFFFE704B080BD81B00090C9
:102B400001B0704780B58AB008900791ADF81A209F
:102B5000059300200290089890F83D00202840F04E
:102B60009080FFE7079820B1FFE7BDF81A0020B971
:102B7000FFE701208DF8270087E0FFE7089890F82D
:102B80003C00012804D1FFE702208DF827007CE0FB
:102B90000899012081F83C00FFE7FFE70899002031
:102BA00008640899212081F83D00FEF77DFA029023
:102BB000BDF81A0008998884BDF81A000899C884DD
:102BC00008988068B0F5805F09D1FFE70898006930
:102BD00028B9FFE7002004900798039004E00798C5
:102BE000049000200390FFE7FFE70899002081F898
:102BF0003C00FFE7FFE70898C08C58B3FFE7089850
:102C0000029B05996A4611608021002200F0C6FEF1
:102C100020B1FFE703208DF8270036E0049858B96B
:102C2000FFE7039800886FF35F2008990968486000
:102C300003980230039008E0049800780899096826
:102C40004860049801300490FFE70899C88C013867
:102C5000C884D0E70898029B05996A461160402114
:102C6000002200F09BFE20B1FFE703208DF8270033
:102C70000BE00899202081F83D0000208DF8270006
:102C800003E002208DF82700FFE79DF827000AB037
:102C900080BD000084B002900191ADF8022002983E
:102CA00090F83D0020283ED1FFE7019820B1FFE7D2
:102CB000BDF8020020B9FFE701208DF80F0036E0D3
:102CC000FFE7029890F83C00012804D1FFE70220BA
:102CD0008DF80F002BE00299012081F83C00FFE7FE
:102CE000FFE7019802990862BDF802000299888402
:102CF000BDF802000299C884029900200864029974
:102D0000212081F83D00FFE70299002081F83C0076
:102D1000FFE702980168C86840F08000C8600020A2
:102D20008DF80F0003E002208DF80F00FFE79DF8FB
:102D30000F0004B07047000081B0009001B07047F0
:102D4000FFE7FEE780B582B0FFE70020019043F681
:102D50003000C4F20200016841F4800101600068A3
:102D600000F4800001900198FFE7392000900022D4
:102D70001146FEF731FA0098FEF724FA02B080BD42
:102D800080B592B00020119010900F900E900D9091
:102D9000FFE700200C9043F63000C4F20200016807
:102DA00041F040010160006800F040000C900C9878
:102DB000FFE7FFE700200B9043F63000C4F202006B
:102DC000016841F001010160006800F001000B9012
:102DD0000B98FFE7FFE700200A9043F63000C4F2AB
:102DE0000200016841F080010160006800F080008D
:102DF0000A900A98FFE7FFE70020099043F63000A9
:102E0000C4F20200016841F010010160006800F0A6
:102E1000100009900998FFE7FFE70020089043F6AB
:102E20003000C4F20200016841F020010160006836
:102E300000F0200008900898FFE741F20000C4F27B
:102E4000020002904FF40061019100220592FEF70A
:102E500013F9059A41F20040C4F2020006904FF4C3
:102E600080410391FEF708F9019A029805990D92A5
:102E7000012204920E920F9110910DA90791FDF776
:102E800003FFDDF80CC0049B059A06980799CDF85E
:102E900034C00E930F921092FDF7F6FE12B080BD73
:102EA00080B582B000210191009140F2D000C2F2C1
:102EB000000041F20002C4F20002026047F22F5209
:102EC0004260816040F22B12C2608161FEF7D8FF40
:102ED00018B1FFE7FDF78EFBFFE70020009001909F
:102EE00040F2D000C2F200006946FEF737FF18B189
:102EF000FFE7FDF77FFBFFE702B080BD80B582B042
:102F000040F21810C2F20000019041F20041C4F2F8
:102F1000010101604FF41651416000218160C160E0
:102F200001610C2242618161C161FFF7DFFC18B1D0
:102F3000FFE7FDF75FFBFFE702B080BDFFE7FEE7BD
:102F4000FFE7FEE788B0079006910592079800F02A
:102F5000070004900498C0F10700052803D3FFE799
:102F60000420019004E00498C0F107000190FFE7FD
:102F70000198039004980430062803D8FFE7002046
:102F8000009003E0049803380090FFE70098029057
:102F900006980399012202FA01F101390840029BC7
:102FA000984005999A40013A1140084308B070478B
:102FB000704700007047000080B582B00090009814
:102FC0000138B0F1807F03D3FFE70120019019E0C1
:102FD000009801384EF21401CEF2000108604FF063
:102FE000FF300F2100F08EFD4EF21801CEF20001ED
:102FF000002008604EF21002CEF20002072111609C
:103000000190FFE7019802B080BD000080B5FEF797
:1030100051F880BD80B594B008A83021FDF7AEF915
:10302000002007900690059004900390FFE7002091
:10303000029043F64000C4F20200016841F0805162
:103040000160006800F0805002900298FFE7FFE7FF
:103050000020019047F20000C4F20000016841F432
:1030600040410160006800F4404001900198FFE792
:10307000012008904FF48030099002200E904FF408
:1030800080010F9106211091B4211191129004201A
:10309000139008A8FEF7F2FA18B1FFE7FDF7AAFAB5
:1030A000FFE7FEF7BBF818B1FFE7FDF7A3FAFFE76C
:1030B0000F20039002200490002005904FF4A050B0
:1030C00006904FF48050079003A80521FEF706F9FB
:1030D00018B1FFE7FDF78EFAFFE714B080BD0000DE
:1030E0004EF68851CEF20001086840F47000086086
:1030F0007047000080B540F2D000C2F20000FEF739
:10310000DBFF80BD83B002900191029800680090BF
:1031100002980021C4F20101884225D0FFE70298FD
:10312000B0F1804F20D0FFE7029840F20041C4F296
:103130000001884218D0FFE7029840F60001C4F26F
:103140000001884210D0FFE7029840F60041C4F227
:103150000001884208D0FFE7029840F20041C4F223
:10316000010188420AD1FFE7009820F0700000902A
:1031700001984168009808430090FFE702980021F9
:10318000C4F20101884255D0FFE70298B0F1804FA8
:1031900050D0FFE7029840F20041C4F2000188429B
:1031A00048D0FFE7029840F60001C4F200018842CF
:1031B00040D0FFE7029840F60041C4F20001884287
:1031C00038D0FFE7029840F20041C4F20101884282
:1031D00030D0FFE7029844F20001C4F201018842B6
:1031E00028D0FFE7029844F20041C4F2010188426E
:1031F00020D0FFE7029844F60001C4F201018842A2
:1032000018D0FFE7029841F60001C4F2000188429D
:1032100010D0FFE7029841F60041C4F20001884255
:1032200008D0FFE7029842F20001C4F20001884290
:103230000AD1FFE7009820F4407000900198C1681F
:10324000009808430090FFE7009820F08000019963
:1032500049690843009000980299086001988068C5
:103260000299C86201980068029988620298002158
:10327000C4F20101884208D0FFE7029840F2004101
:10328000C4F20101884205D1FFE701980069029963
:103290000863FFE702990120486103B0704700000E
:1032A00080B582B001900198806B00900099002059
:1032B000C8850099C8840098FFF704F902B080BD62
:1032C00080B584B00390002002900398806B019039
:1032D000019800684069C0B2C0090290019890F856
:1032E0003D0021280AD1FFE7029838B1FFE7019994
:1032F0000020C884019800F00FF9FFE701980068EA
:103300004069C0F380100290019890F83E00222896
:103310000AD1FFE7029838B1FFE701990020C8857C
:10332000019800F09BF8FFE70199086C40F010004D
:1033300008640198FFF7C6F804B080BD80B586B078
:1033400005900598806B0490059800680068C0059A
:1033500000285AD4FFE704990020C885FFE7FFE75B
:103360000498006850E8030F20F480700390FFE792
:1033700003990498026842E803100028F0D1FFE79F
:10338000FFE7FFE7FFE70498006850E8050F20F02B
:1033900001000290FFE702990498026842E80510D4
:1033A0000028F0D1FFE7FFE7FFE7FFE70498006898
:1033B00050E8050F20F040000190FFE701990498C4
:1033C000026842E805100028F0D1FFE7FFE7049902
:1033D000202081F83E000498006B012814D1FFE7FB
:1033E000FFE7FFE70498006850E8030F20F01000A3
:1033F0000090FFE700990498026842E80310002853
:10340000F0D1FFE7FFE7FFE7FFE70498006B012833
:1034100005D1FFE70498818DFFF726F803E00498B3
:10342000FFF76AFBFFE706B080BD000080B582B001
:1034300001900198806B00900098006B012806D1E4
:10344000FFE70098818D4908FFF70EF803E0009828
:10345000FFF774FBFFE702B080BD000084B003906B
:10346000FFE7FFE70398006850E8030F20F490702F
:103470000290FFE702990398026842E803100028CF
:10348000F0D1FFE7FFE7FFE7FFE70398006850E8A8
:10349000050F20F001000190FFE7019903980268F1
:1034A00042E805100028F0D1FFE7FFE70398006B22
:1034B000012814D1FFE7FFE7FFE70398006850E811
:1034C000030F20F010000090FFE7009903980268B6
:1034D00042E803100028F0D1FFE7FFE7FFE7039978
:1034E000202081F83E0003990020086304B0704753
:1034F00080B582B0019001980168C86820F0400052
:10350000C8600199202081F83D000198FFF714FC64
:10351000002002B080BD000082B00190FFE7FFE70D
:103520000198006850E8030F20F0C0000090FFE70A
:1035300000990198026842E803100028F0D1FFE7E3
:10354000FFE70199202081F83D0002B0704700009C
:1035500080B586B00490049890F83E00222840F090
:10356000A180FFE704988068B0F5805F15D1FFE780
:103570000498006988B9FFE7002003900498806AE6
:1035800002900498006840686FF35F2002990880F9
:103590000499886A0230886225E00498806A039062
:1035A0000020029004988068B0F5805F08D0FFE7A3
:1035B0000498806850B9FFE70498006930B9FFE7C4
:1035C0000498006840680399087007E00498006850
:1035D000406800F07F0003990870FFE70499886A4B
:1035E00001308862FFE70499C88D0138C88500045E
:1035F000002853D1FFE704980168C86820F0200034
:10360000C86004980168C86820F48070C860049895
:103610000168486920F0010048610499202081F880
:103620003E000498006B012830D1FFE70499002088
:103630000863FFE7FFE70498006850E8030F20F0F5
:1036400010000190FFE701990498026842E8031016
:103650000028F0D1FFE7FFE7049800680068C00683
:1036600000280ED5FFE7FFE70020009004980068CF
:103670000068009004980068406800900098FFE798
:10368000FFE70498818DFEF7EFFE03E00498FFF753
:1036900033FAFFE700208DF8170007E000208DF8CF
:1036A000170003E002208DF81700FFE79DF81700D0
:1036B00006B080BD80B586B00590059800680069A9
:1036C00020F44050059A1168D268104308610599AA
:1036D00088680B694A69C969184310430843049014
:1036E00005980068C06849F20C6188430499084352
:1036F00005990968C86005980068406920F4407021
:10370000059A11689269104348610598006841F272
:103710000001C4F20101884209D0FFE70598006862
:1037200041F20041C4F20101884204D1FFE7FDF7F4
:103730001FFF039003E0FDF709FF0390FFE70598E3
:10374000C069B0F5004F29D1FFE703981921A0FB0C
:103750000101059A1368029353685A00DB0FFCF7C6
:1037600095FD0299864648F21F53C5F2EB13AEFB56
:103770000320420910014FF0640C02FB1CEC3222C2
:1037800002EBCC02A2FB0332F82303EA521300EB54
:103790004300C2F342121044886026E003981921C6
:1037A000A0FB0101059A1368019353689A009B0FCF
:1037B000FCF76CFD0199844648F21F52C5F2EB12EA
:1037C000ACFB02304309642003FB10CC322000EB39
:1037D0000C10A0FB0202F02000EA521000EB0310D4
:1037E000C2F3431210448860FFE706B080BD0000BA
:1037F00080B588B007900691ADF816200698079915
:103800008862BDF81600079988850799002008642A
:10381000079A222182F83E1007998A6B43F23D31C4
:10382000C0F60001D16307998A6B43F22D41C0F6BF
:103830000001116407998A6B43F2C121C0F60001AF
:10384000D1640799896B086506A8049007980168F8
:10385000806B0431049A1268BDF81630FDF7B2F996
:10386000FFE700200390079800680068039007981E
:103870000068406803900398FFE7FFE7079900207E
:1038800081F83C00FFE707980069A0B1FFE7FFE778
:10389000FFE70798006850E8030F40F4807002903B
:1038A000FFE702990798026842E803100028F0D168
:1038B000FFE7FFE7FFE7FFE7FFE70798006850E84B
:1038C000050F40F001000190FFE701990798026899
:1038D00042E805100028F0D1FFE7FFE7FFE7FFE728
:1038E0000798006850E8050F40F040000090FFE79F
:1038F00000990798026842E805100028F0D1FFE718
:10390000FFE7002008B080BD83B00190019890F8D7
:103910003D0021283AD1FFE701988068B0F5805F2B
:1039200013D1FFE70198006978B9FFE70198006AB1
:103930000090009800886FF35F2001990968486043
:103940000199086A0230086208E0019A106A411C75
:1039500011620078019909684860FFE70199C88CF5
:103960000138C884000468B9FFE701980168C86895
:1039700020F08000C86001980168C86840F04000ED
:10398000C860FFE700208DF80B0003E002208DF8EF
:103990000B00FFE79DF80B0003B0704780B588B0BF
:1039A000DDF828C0069005918DF813200393FFE7FA
:1039B00006980068006805990840401AB0FA80F03F
:1039C00040099DF81310884249D1FFE70A98013059
:1039D000002843D0FFE70A9840B1FFE7FDF764FBFA
:1039E0000399401A0A99884237D9FFE7FFE7FFE7B2
:1039F0000698006850E8030F20F4D0700290FFE7AB
:103A000002990698026842E803100028F0D1FFE707
:103A1000FFE7FFE7FFE70698006850E8050F20F092
:103A200001000190FFE701990698026842E805103D
:103A30000028F0D1FFE7FFE70699202081F83D003C
:103A4000069981F83E00FFE70699002081F83C00C6
:103A5000FFE703208DF81F0005E0FFE7A8E700203F
:103A60008DF81F00FFE79DF81F0008B080BD000023
:103A700080B540F21810C2F20000FEF727FD80BDAD
:103A8000FFE7FEE780B582B040F21810C2F20000F6
:103A900001900268D16841F01001D16040F25C11E0
:103AA000C2F200014FF48072FEF76EFC019843F6FB
:103AB0001841C0F6000105226423FFF743F802B065
:103AC00080BD000081B08DF803009DF9030000283F
:103AD0000ED4FFE79DF9031001F01F020120904072
:103AE0004A094EF20011CEF2000141F82200FFE730
:103AF00001B070474EF60C50CEF200000068C0F3E3
:103B00000220704782B08DF8070000919DF90700F0
:103B100000280AD4FFE7009800019DF907104EF233
:103B20000042CEF2000288540BE0009800019DF89C
:103B3000071001F00F014EF61452CEF20002885425
:103B4000FFE702B07047000083B00290029800F0D7
:103B5000070000904EF60C51CEF20001086801906B
:103B600001984FF6FF02104001900198009A40EA38
:103B700002200022C0F2FA5210430190019808601E
:103B800003B0704780B582B000200190FDF7A0FA25
:103B9000FFF740FAFFF7F4F8FFF7D4F8FFF780F9E2
:103BA000FFF7ACF900F002F8FFE7FEE780B582B05E
:103BB00041F20000C4F202004FF4006101220192C0
:103BC000FDF75AFA019A41F20040C4F202004FF4A4
:103BD0008041FDF751FAFFF755FFFFE7FEE7F1EEF1
:103BE000100A4FF6FF71C0F2C03120EA010040F028
:103BF0004070E1EE100A7047000000000000000075
:103C00000102030406070809000000000102030482
:103C10000006101600061016696E69740A0000008E
:103C2000403C00080000002010000000E8010008EF
:103C3000503C00081000002050080000040200085A
:103C40000024F4000100000010000000000000004B
:04000005080001AD41
:00000001FF
